:100000000EC01DC01CC01BC01AC01AC018C017C02B
:1000100016C015C014C013C012C011C010C01124E6
:100020001FBECFE5D2E0DEBFCDBF20E0A0E6B0E04E
:1000300001C01D92A936B207E1F74CD08BC0E0CFCA
:100040001F920F920FB60F9211242F933F938F930D
:100050009F93AF93BF938091650090916600A091AC
:100060006700B09168003091640020E3230F2D37C2
:1000700058F54096A11DB11D209364008093650042
:1000800090936600A0936700B09368008091600031
:1000900090916100A0916200B09163000196A11D52
:1000A000B11D8093600090936100A0936200B093B3
:1000B0006300BF91AF919F918F913F912F910F90CE
:1000C0000FBE0F901F90189523EB230F4196A11D93
:1000D000B11DD2CF78948AB582608ABD8AB581601D
:1000E0008ABD83B7826083BF83B7816083BF89B7CE
:1000F000826089BF80B7826080BF3298319A309A1F
:10010000379A82E087BB18BA00E010E0B09B1CC0B1
:10011000CA30D10584F4C19A87EA91E60197F1F7D4
:1001200000C00000C19887EA91E60197F1F700C08E
:1001300000002196EDCF9FE724E88EE1915020400A
:100140008040E1F700C00000C19801151105F1F2EF
:0801500057DFDCCFF894FFCF6C
:00000001FF
